{
  "contractName": "Ballot",
  "abi": [
    {
      "inputs": [
        {
          "internalType": "string",
          "name": "_message",
          "type": "string"
        },
        {
          "internalType": "string",
          "name": "_officialName",
          "type": "string"
        }
      ],
      "payable": false,
      "stateMutability": "nonpayable",
      "type": "constructor"
    },
    {
      "anonymous": false,
      "inputs": [],
      "name": "testEvent",
      "type": "event"
    },
    {
      "anonymous": false,
      "inputs": [],
      "name": "voteSubmitted",
      "type": "event"
    },
    {
      "constant": true,
      "inputs": [],
      "name": "message",
      "outputs": [
        {
          "internalType": "string",
          "name": "",
          "type": "string"
        }
      ],
      "payable": false,
      "stateMutability": "view",
      "type": "function"
    },
    {
      "constant": true,
      "inputs": [],
      "name": "officialAddress",
      "outputs": [
        {
          "internalType": "address",
          "name": "",
          "type": "address"
        }
      ],
      "payable": false,
      "stateMutability": "view",
      "type": "function"
    },
    {
      "constant": true,
      "inputs": [],
      "name": "officialName",
      "outputs": [
        {
          "internalType": "string",
          "name": "",
          "type": "string"
        }
      ],
      "payable": false,
      "stateMutability": "view",
      "type": "function"
    },
    {
      "constant": true,
      "inputs": [],
      "name": "state",
      "outputs": [
        {
          "internalType": "enum Ballot.State",
          "name": "",
          "type": "uint8"
        }
      ],
      "payable": false,
      "stateMutability": "view",
      "type": "function"
    },
    {
      "constant": false,
      "inputs": [
        {
          "internalType": "address",
          "name": "_voterAddress",
          "type": "address"
        },
        {
          "internalType": "string",
          "name": "_voterName",
          "type": "string"
        }
      ],
      "name": "registerVoter",
      "outputs": [],
      "payable": false,
      "stateMutability": "nonpayable",
      "type": "function"
    },
    {
      "constant": false,
      "inputs": [],
      "name": "openPoll",
      "outputs": [],
      "payable": false,
      "stateMutability": "nonpayable",
      "type": "function"
    },
    {
      "constant": false,
      "inputs": [],
      "name": "closePoll",
      "outputs": [],
      "payable": false,
      "stateMutability": "nonpayable",
      "type": "function"
    },
    {
      "constant": false,
      "inputs": [
        {
          "internalType": "string",
          "name": "office",
          "type": "string"
        },
        {
          "internalType": "string",
          "name": "name",
          "type": "string"
        },
        {
          "internalType": "string",
          "name": "party",
          "type": "string"
        }
      ],
      "name": "writeIn",
      "outputs": [],
      "payable": false,
      "stateMutability": "nonpayable",
      "type": "function"
    },
    {
      "constant": false,
      "inputs": [
        {
          "internalType": "uint256",
          "name": "cID",
          "type": "uint256"
        }
      ],
      "name": "submitVote",
      "outputs": [
        {
          "internalType": "bool",
          "name": "",
          "type": "bool"
        }
      ],
      "payable": false,
      "stateMutability": "nonpayable",
      "type": "function"
    },
    {
      "constant": true,
      "inputs": [
        {
          "internalType": "uint256",
          "name": "cID",
          "type": "uint256"
        }
      ],
      "name": "getVoteCount",
      "outputs": [
        {
          "internalType": "uint256",
          "name": "",
          "type": "uint256"
        }
      ],
      "payable": false,
      "stateMutability": "view",
      "type": "function"
    },
    {
      "constant": false,
      "inputs": [],
      "name": "test",
      "outputs": [
        {
          "internalType": "string",
          "name": "",
          "type": "string"
        }
      ],
      "payable": false,
      "stateMutability": "nonpayable",
      "type": "function"
    },
    {
      "constant": false,
      "inputs": [
        {
          "internalType": "string",
          "name": "_message",
          "type": "string"
        }
      ],
      "name": "set",
      "outputs": [],
      "payable": false,
      "stateMutability": "nonpayable",
      "type": "function"
    }
  ],
  "bytecode": "0x608060405260006001556000600255600060035560006004553480156200002557600080fd5b5060405162001eec38038062001eec833981810160405260408110156200004b57600080fd5b81019080805160405193929190846401000000008211156200006c57600080fd5b838201915060208201858111156200008357600080fd5b8251866001820283011164010000000082111715620000a157600080fd5b8083526020830192505050908051906020019080838360005b83811015620000d7578082015181840152602081019050620000ba565b50505050905090810190601f168015620001055780820380516001836020036101000a031916815260200191505b50604052602001805160405193929190846401000000008211156200012957600080fd5b838201915060208201858111156200014057600080fd5b82518660018202830111640100000000821117156200015e57600080fd5b8083526020830192505050908051906020019080838360005b838110156200019457808201518184015260208101905062000177565b50505050905090810190601f168015620001c25780820380516001836020036101000a031916815260200191505b506040525050508160009080519060200190620001e19291906200050c565b508060069080519060200190620001fa9291906200050c565b5033600560006101000a81548173ffffffffffffffffffffffffffffffffffffffff021916908373ffffffffffffffffffffffffffffffffffffffff1602179055506000600a60006101000a81548160ff021916908360028111156200025c57fe5b021790555060006003600081548092919060010191905055905060405180608001604052806040518060400160405280600981526020017f507265736964656e74000000000000000000000000000000000000000000000081525081526020016040518060400160405280600f81526020017f43616c76696e20436f6f6c69646765000000000000000000000000000000000081525081526020016040518060400160405280600a81526020017f52657075626c6963616e000000000000000000000000000000000000000000008152508152602001828152506007600083815260200190815260200160002060008201518160000190805190602001906200036792919062000593565b5060208201518160010190805190602001906200038692919062000593565b506040820151816002019080519060200190620003a592919062000593565b50606082015181600301559050506003600081548092919060010191905055905060405180608001604052806040518060400160405280600981526020017f507265736964656e74000000000000000000000000000000000000000000000081525081526020016040518060400160405280600c81526020017f4a6f686e2057204461766973000000000000000000000000000000000000000081525081526020016040518060400160405280600881526020017f44656d6f63726174000000000000000000000000000000000000000000000000815250815260200182815250600760008381526020019081526020016000206000820151816000019080519060200190620004b792919062000593565b506020820151816001019080519060200190620004d692919062000593565b506040820151816002019080519060200190620004f592919062000593565b506060820151816003015590505050505062000642565b828054600181600116156101000203166002900490600052602060002090601f016020900481019282601f106200054f57805160ff191683800117855562000580565b8280016001018555821562000580579182015b828111156200057f57825182559160200191906001019062000562565b5b5090506200058f91906200061a565b5090565b828054600181600116156101000203166002900490600052602060002090601f016020900481019282601f10620005d657805160ff191683800117855562000607565b8280016001018555821562000607579182015b8281111562000606578251825591602001919060010190620005e9565b5b5090506200061691906200061a565b5090565b6200063f91905b808211156200063b57600081600090555060010162000621565b5090565b90565b61189a80620006526000396000f3fe608060405234801561001057600080fd5b50600436106100b45760003560e01c8063c19d93fb11610071578063c19d93fb14610472578063e21f37ce1461049e578063ebbb4f8414610521578063ed8c2aed146105fc578063f8a8fd6d14610606578063fcd41c1f14610689576100b4565b80632844328f146100b957806340176058146100ff5780634ed3885e146101095780635ccdcb71146101c4578063aec96d0114610247578063b2c2f2e814610430575b600080fd5b6100e5600480360360208110156100cf57600080fd5b81019080803590602001909291905050506106d3565b604051808215151515815260200191505060405180910390f35b610107611095565b005b6101c26004803603602081101561011f57600080fd5b810190808035906020019064010000000081111561013c57600080fd5b82018360208201111561014e57600080fd5b8035906020019184600183028401116401000000008311171561017057600080fd5b91908080601f016020809104026020016040519081016040528093929190818152602001838380828437600081840152601f19601f820116905080830192505050505050509192919290505050611149565b005b6101cc611163565b6040518080602001828103825283818151815260200191508051906020019080838360005b8381101561020c5780820151818401526020810190506101f1565b50505050905090810190601f1680156102395780820380516001836020036101000a031916815260200191505b509250505060405180910390f35b61042e6004803603606081101561025d57600080fd5b810190808035906020019064010000000081111561027a57600080fd5b82018360208201111561028c57600080fd5b803590602001918460018302840111640100000000831117156102ae57600080fd5b91908080601f016020809104026020016040519081016040528093929190818152602001838380828437600081840152601f19601f8201169050808301925050505050505091929192908035906020019064010000000081111561031157600080fd5b82018360208201111561032357600080fd5b8035906020019184600183028401116401000000008311171561034557600080fd5b91908080601f016020809104026020016040519081016040528093929190818152602001838380828437600081840152601f19601f820116905080830192505050505050509192919290803590602001906401000000008111156103a857600080fd5b8201836020820111156103ba57600080fd5b803590602001918460018302840111640100000000831117156103dc57600080fd5b91908080601f016020809104026020016040519081016040528093929190818152602001838380828437600081840152601f19601f820116905080830192505050505050509192919290505050611201565b005b61045c6004803603602081101561044657600080fd5b81019080803590602001909291905050506112b4565b6040518082815260200191505060405180910390f35b61047a61130c565b6040518082600281111561048a57fe5b60ff16815260200191505060405180910390f35b6104a661131f565b6040518080602001828103825283818151815260200191508051906020019080838360005b838110156104e65780820151818401526020810190506104cb565b50505050905090810190601f1680156105135780820380516001836020036101000a031916815260200191505b509250505060405180910390f35b6105fa6004803603604081101561053757600080fd5b81019080803573ffffffffffffffffffffffffffffffffffffffff1690602001909291908035906020019064010000000081111561057457600080fd5b82018360208201111561058657600080fd5b803590602001918460018302840111640100000000831117156105a857600080fd5b91908080601f016020809104026020016040519081016040528093929190818152602001838380828437600081840152601f19601f8201169050808301925050505050505091929192905050506113bd565b005b610604611504565b005b61060e6115b8565b6040518080602001828103825283818151815260200191508051906020019080838360005b8381101561064e578082015181840152602081019050610633565b50505050905090810190601f16801561067b5780820380516001836020036101000a031916815260200191505b509250505060405180910390f35b610691611686565b604051808273ffffffffffffffffffffffffffffffffffffffff1673ffffffffffffffffffffffffffffffffffffffff16815260200191505060405180910390f35b600060018060028111156106e357fe5b600a60009054906101000a900460ff1660028111156106fe57fe5b1461070857600080fd5b60008090506000600960003373ffffffffffffffffffffffffffffffffffffffff1673ffffffffffffffffffffffffffffffffffffffff168152602001908152602001600020600001805460018160011615610100020316600290049050141580156107c15750600960003373ffffffffffffffffffffffffffffffffffffffff1673ffffffffffffffffffffffffffffffffffffffff16815260200190815260200160002060010160009054906101000a900460ff16155b1561108b576107ce6116ac565b33816000019073ffffffffffffffffffffffffffffffffffffffff16908173ffffffffffffffffffffffffffffffffffffffff168152505060076000868152602001908152602001600020604051806080016040529081600082018054600181600116156101000203166002900480601f0160208091040260200160405190810160405280929190818152602001828054600181600116156101000203166002900480156108bd5780601f10610892576101008083540402835291602001916108bd565b820191906000526020600020905b8154815290600101906020018083116108a057829003601f168201915b50505050508152602001600182018054600181600116156101000203166002900480601f01602080910402602001604051908101604052809291908181526020018280546001816001161561010002031660029004801561095f5780601f106109345761010080835404028352916020019161095f565b820191906000526020600020905b81548152906001019060200180831161094257829003601f168201915b50505050508152602001600282018054600181600116156101000203166002900480601f016020809104026020016040519081016040528092919081815260200182805460018160011615610100020316600290048015610a015780601f106109d657610100808354040283529160200191610a01565b820191906000526020600020905b8154815290600101906020018083116109e457829003601f168201915b50505050508152602001600382015481525050816020018190525060076000868152602001908152602001600020604051806080016040529081600082018054600181600116156101000203166002900480601f016020809104026020016040519081016040528092919081815260200182805460018160011615610100020316600290048015610ad35780601f10610aa857610100808354040283529160200191610ad3565b820191906000526020600020905b815481529060010190602001808311610ab657829003601f168201915b50505050508152602001600182018054600181600116156101000203166002900480601f016020809104026020016040519081016040528092919081815260200182805460018160011615610100020316600290048015610b755780601f10610b4a57610100808354040283529160200191610b75565b820191906000526020600020905b815481529060010190602001808311610b5857829003601f168201915b50505050508152602001600282018054600181600116156101000203166002900480601f016020809104026020016040519081016040528092919081815260200182805460018160011615610100020316600290048015610c175780601f10610bec57610100808354040283529160200191610c17565b820191906000526020600020905b815481529060010190602001808311610bfa57829003601f168201915b50505050508152602001600382015481525050816040018190525060076000868152602001908152602001600020604051806080016040529081600082018054600181600116156101000203166002900480601f016020809104026020016040519081016040528092919081815260200182805460018160011615610100020316600290048015610ce95780601f10610cbe57610100808354040283529160200191610ce9565b820191906000526020600020905b815481529060010190602001808311610ccc57829003601f168201915b50505050508152602001600182018054600181600116156101000203166002900480601f016020809104026020016040519081016040528092919081815260200182805460018160011615610100020316600290048015610d8b5780601f10610d6057610100808354040283529160200191610d8b565b820191906000526020600020905b815481529060010190602001808311610d6e57829003601f168201915b50505050508152602001600282018054600181600116156101000203166002900480601f016020809104026020016040519081016040528092919081815260200182805460018160011615610100020316600290048015610e2d5780601f10610e0257610100808354040283529160200191610e2d565b820191906000526020600020905b815481529060010190602001808311610e1057829003601f168201915b5050505050815260200160038201548152505081606001819052508060086000600254815260200190815260200160002060008201518160000160006101000a81548173ffffffffffffffffffffffffffffffffffffffff021916908373ffffffffffffffffffffffffffffffffffffffff1602179055506020820151816001016000820151816000019080519060200190610eca9291906116fc565b506020820151816001019080519060200190610ee79291906116fc565b506040820151816002019080519060200190610f049291906116fc565b506060820151816003015550506040820151816005016000820151816000019080519060200190610f369291906116fc565b506020820151816001019080519060200190610f539291906116fc565b506040820151816002019080519060200190610f709291906116fc565b506060820151816003015550506060820151816009016000820151816000019080519060200190610fa29291906116fc565b506020820151816001019080519060200190610fbf9291906116fc565b506040820151816002019080519060200190610fdc9291906116fc565b50606082015181600301555050905050600260008154809291906001019190505550600191506001600960003373ffffffffffffffffffffffffffffffffffffffff1673ffffffffffffffffffffffffffffffffffffffff16815260200190815260200160002060010160006101000a81548160ff0219169083151502179055507fb05f804f5058f038c5eff5601bf7bc25c305815aeff275299d40f182fa8c9a3260405160405180910390a1505b8092505050919050565b60008060028111156110a357fe5b600a60009054906101000a900460ff1660028111156110be57fe5b146110c857600080fd5b600560009054906101000a900473ffffffffffffffffffffffffffffffffffffffff1673ffffffffffffffffffffffffffffffffffffffff163373ffffffffffffffffffffffffffffffffffffffff161461112257600080fd5b6001600a60006101000a81548160ff0219169083600281111561114157fe5b021790555050565b806000908051906020019061115f92919061177c565b5050565b60068054600181600116156101000203166002900480601f0160208091040260200160405190810160405280929190818152602001828054600181600116156101000203166002900480156111f95780601f106111ce576101008083540402835291602001916111f9565b820191906000526020600020905b8154815290600101906020018083116111dc57829003601f168201915b505050505081565b6000600360008154809291906001019190505590506040518060800160405280858152602001848152602001838152602001828152506007600083815260200190815260200160002060008201518160000190805190602001906112669291906116fc565b5060208201518160010190805190602001906112839291906116fc565b5060408201518160020190805190602001906112a09291906116fc565b506060820151816003015590505050505050565b6000806000905060008090505b6001548110156113025783600860008381526020019081526020016000206001016003015414156112f55781806001019250505b80806001019150506112c1565b5080915050919050565b600a60009054906101000a900460ff1681565b60008054600181600116156101000203166002900480601f0160208091040260200160405190810160405280929190818152602001828054600181600116156101000203166002900480156113b55780601f1061138a576101008083540402835291602001916113b5565b820191906000526020600020905b81548152906001019060200180831161139857829003601f168201915b505050505081565b60008060028111156113cb57fe5b600a60009054906101000a900460ff1660028111156113e657fe5b146113f057600080fd5b600560009054906101000a900473ffffffffffffffffffffffffffffffffffffffff1673ffffffffffffffffffffffffffffffffffffffff163373ffffffffffffffffffffffffffffffffffffffff161461144a57600080fd5b6114526117fc565b828160000181905250600081602001901515908115158152505080600960008673ffffffffffffffffffffffffffffffffffffffff1673ffffffffffffffffffffffffffffffffffffffff16815260200190815260200160002060008201518160000190805190602001906114c89291906116fc565b5060208201518160010160006101000a81548160ff02191690831515021790555090505060016000815480929190600101919050555050505050565b600180600281111561151257fe5b600a60009054906101000a900460ff16600281111561152d57fe5b1461153757600080fd5b600560009054906101000a900473ffffffffffffffffffffffffffffffffffffffff1673ffffffffffffffffffffffffffffffffffffffff163373ffffffffffffffffffffffffffffffffffffffff161461159157600080fd5b6002600a60006101000a81548160ff021916908360028111156115b057fe5b021790555050565b60607f4f9d719e2b5db078a138bd305c6b661cb2fd127ebd2d36e75a5545a03e1a6b3560405160405180910390a160008054600181600116156101000203166002900480601f01602080910402602001604051908101604052809291908181526020018280546001816001161561010002031660029004801561167c5780601f106116515761010080835404028352916020019161167c565b820191906000526020600020905b81548152906001019060200180831161165f57829003601f168201915b5050505050905090565b600560009054906101000a900473ffffffffffffffffffffffffffffffffffffffff1681565b6040518060800160405280600073ffffffffffffffffffffffffffffffffffffffff1681526020016116dc611818565b81526020016116e9611818565b81526020016116f6611818565b81525090565b828054600181600116156101000203166002900490600052602060002090601f016020900481019282601f1061173d57805160ff191683800117855561176b565b8280016001018555821561176b579182015b8281111561176a57825182559160200191906001019061174f565b5b5090506117789190611840565b5090565b828054600181600116156101000203166002900490600052602060002090601f016020900481019282601f106117bd57805160ff19168380011785556117eb565b828001600101855582156117eb579182015b828111156117ea5782518255916020019190600101906117cf565b5b5090506117f89190611840565b5090565b6040518060400160405280606081526020016000151581525090565b6040518060800160405280606081526020016060815260200160608152602001600081525090565b61186291905b8082111561185e576000816000905550600101611846565b5090565b9056fea265627a7a7231582014b133f14f109cb54661bbc9fd1bff30ac17e206d551491c29236692ed3607cc64736f6c63430005100032",
  "source": "// SPDX-License-Identifier: MIT\r\npragma solidity >=0.4.22 <0.9.0;\r\n\r\ncontract Ballot {\r\n\r\n    string public message;\r\n\r\n    uint voterCount = 0;\r\n    uint voteCount = 0;\r\n    uint candidateCount = 0;\r\n    uint private countResult = 0;\r\n    address public officialAddress;\r\n    string public officialName;    \r\n    \r\n    //consider replacing string with byte 32\r\n    struct voter{\r\n        string voterName;\r\n        //uint voterID;\r\n        bool hasVoted;\r\n    }\r\n       \r\n    struct candidate{\r\n        string office;\r\n        string candidateName;\r\n        string party;\r\n        uint cID;\r\n    }\r\n\r\n    struct vote{\r\n        address voterAddress;\r\n        candidate president;\r\n        candidate house;\r\n        candidate senate;\r\n    }\r\n    \r\n    mapping (uint => candidate) candidates;\r\n    mapping (uint => vote) private votes;\r\n    mapping (address => voter) voterRegistry;\r\n    \r\n    enum State { Created, Voting, Ended }\r\n    State public state;\r\n\r\n    //MODIFIERS\r\n    modifier condition(bool _condition) {\r\n        require((_condition));\r\n        _;\r\n    }\r\n\r\n    modifier officialOnly() {\r\n        require(msg.sender == officialAddress);\r\n        _;\r\n    }\r\n\r\n    modifier inState(State _state) {\r\n        require(state == _state);\r\n        _;\r\n    }\r\n\r\n    //FUNCTIONS\r\n    constructor(string memory _message, string memory _officialName) public  {\r\n        message = _message;\r\n        officialName = _officialName;\r\n        officialAddress = msg.sender;\r\n\r\n        state = State.Created;\r\n        uint cID = candidateCount++;\r\n        candidates[cID] = candidate(\"President\", \"Calvin Coolidge\", \"Republican\", cID); \r\n\r\n        cID = candidateCount++;\r\n        candidates[cID] = candidate(\"President\", \"John W Davis\", \"Democrat\", cID); \r\n    }\r\n    \r\n    function registerVoter(address _voterAddress, string memory _voterName) public inState(State.Created) officialOnly{\r\n        voter memory v;\r\n        v.voterName = _voterName;\r\n        v.hasVoted = false;\r\n        voterRegistry[_voterAddress] = v;\r\n        voterCount++;\r\n    }\r\n\r\n    function openPoll() public inState(State.Created) officialOnly {\r\n        state = State.Voting;\r\n    }\r\n\r\n    function closePoll() public inState(State.Voting) officialOnly {\r\n        state = State.Ended;\r\n        \r\n    }\r\n\r\n    function writeIn(string memory office, string memory name, string memory party) public {\r\n        \r\n        uint cID = candidateCount++;\r\n        candidates[cID] = candidate(office, name, party, cID);\r\n        \r\n        //bool candidateExist = false;\r\n        \r\n        //move to top\r\n        //for (uint i = 0, i < candidateCount, i++){\r\n        //if candidates[i].name == name\r\n        //candidateExist = true\r\n        //submitVote(uint voterID, uint cID);\r\n        //}\r\n        \r\n        //if(candidateExist = false){\r\n            //add candidate\r\n        //}\r\n        \r\n    }\r\n    \r\n    function submitVote(uint cID) public  inState(State.Voting) returns (bool){\r\n        bool found = false;\r\n        \r\n        //make sure voter exists and has not voted\r\n        if(bytes(voterRegistry[msg.sender].voterName).length != 0\r\n        && !voterRegistry[msg.sender].hasVoted){\r\n            vote memory v;\r\n            v.voterAddress = msg.sender;\r\n            v.president = candidates[cID];\r\n            v.house = candidates[cID];\r\n            v.senate = candidates[cID];\r\n            votes[voteCount] = v;\r\n            voteCount++;\r\n            found = true;\r\n            voterRegistry[msg.sender].hasVoted = true;\r\n            emit voteSubmitted();\r\n        }\r\n            return found;\r\n    }\r\n    \r\n    \r\n    //view function are read-only, good for \"getters\"\r\n    function getVoteCount(uint cID) view public returns(uint) {\r\n        \r\n        uint result = 0;\r\n        \r\n        for (uint i = 0; i < voterCount; i++) {\r\n            if (votes[i].president.cID == cID) {\r\n                result++;\r\n            }\r\n        }\r\n        \r\n        return result;\r\n    }\r\n\r\n    function test() public returns(string memory){\r\n        emit testEvent();\r\n      return message;\r\n   }\r\n\r\n   function set(string memory _message) public {\r\n       message = _message;\r\n   }\r\n\r\n   event voteSubmitted();\r\n\r\n   event testEvent();\r\n    \r\n}\r\n\r\n",
  "sourcePath": "C:\\Users\\benev\\Documents\\ElectionSystem\\contracts\\Ballot.sol",
  "compiler": {
    "name": "solc",
    "version": "0.5.16+commit.9c3226ce.Emscripten.clang"
  },
  "schemaVersion": "3.4.3",
  "updatedAt": "2021-12-08T06:30:59.638Z",
  "devdoc": {
    "methods": {}
  },
  "userdoc": {
    "methods": {}
  }
}